{
	"_format": "hh-sol-artifact-1",
	"contractName": "Registry",
	"sourceName": "contracts/StrollManager.sol",
	"abi": [
		{
			"inputs": [
				{
					"internalType": "contract IStrollResolver",
					"name": "_strollResolver",
					"type": "address"
				}
			],
			"stateMutability": "nonpayable",
			"type": "constructor"
		},
		{
			"anonymous": false,
			"inputs": [
				{
					"indexed": true,
					"internalType": "address",
					"name": "previousOwner",
					"type": "address"
				},
				{
					"indexed": true,
					"internalType": "address",
					"name": "newOwner",
					"type": "address"
				}
			],
			"name": "OwnershipTransferred",
			"type": "event"
		},
		{
			"anonymous": false,
			"inputs": [
				{
					"indexed": true,
					"internalType": "bytes32",
					"name": "id",
					"type": "bytes32"
				}
			],
			"name": "PerformedTopUp",
			"type": "event"
		},
		{
			"anonymous": false,
			"inputs": [
				{
					"indexed": true,
					"internalType": "bytes32",
					"name": "id",
					"type": "bytes32"
				},
				{
					"indexed": true,
					"internalType": "address",
					"name": "user",
					"type": "address"
				},
				{
					"indexed": true,
					"internalType": "address",
					"name": "superToken",
					"type": "address"
				},
				{
					"indexed": false,
					"internalType": "address",
					"name": "liquidityToken",
					"type": "address"
				},
				{
					"indexed": false,
					"internalType": "address",
					"name": "strategy",
					"type": "address"
				},
				{
					"indexed": false,
					"internalType": "uint256",
					"name": "time",
					"type": "uint256"
				}
			],
			"name": "TopUpCreated",
			"type": "event"
		},
		{
			"anonymous": false,
			"inputs": [
				{
					"indexed": true,
					"internalType": "bytes32",
					"name": "id",
					"type": "bytes32"
				},
				{
					"indexed": true,
					"internalType": "address",
					"name": "user",
					"type": "address"
				},
				{
					"indexed": true,
					"internalType": "address",
					"name": "superToken",
					"type": "address"
				},
				{
					"indexed": false,
					"internalType": "address",
					"name": "liquidityToken",
					"type": "address"
				},
				{
					"indexed": false,
					"internalType": "address",
					"name": "strategy",
					"type": "address"
				},
				{
					"indexed": false,
					"internalType": "uint256",
					"name": "time",
					"type": "uint256"
				}
			],
			"name": "TopUpDeleted",
			"type": "event"
		},
		{
			"inputs": [],
			"name": "CFA_V1",
			"outputs": [
				{
					"internalType": "contract IConstantFlowAgreementV1",
					"name": "",
					"type": "address"
				}
			],
			"stateMutability": "view",
			"type": "function"
		},
		{
			"inputs": [
				{
					"internalType": "bytes32",
					"name": "_index",
					"type": "bytes32"
				}
			],
			"name": "checkTopUp",
			"outputs": [
				{
					"internalType": "bool",
					"name": "",
					"type": "bool"
				},
				{
					"internalType": "uint256",
					"name": "",
					"type": "uint256"
				}
			],
			"stateMutability": "view",
			"type": "function"
		},
		{
			"inputs": [
				{
					"internalType": "address",
					"name": "_superToken",
					"type": "address"
				},
				{
					"internalType": "address",
					"name": "_strategy",
					"type": "address"
				},
				{
					"internalType": "address",
					"name": "_liquidityToken",
					"type": "address"
				},
				{
					"internalType": "uint64",
					"name": "_time",
					"type": "uint64"
				},
				{
					"internalType": "uint64",
					"name": "_lowerLimit",
					"type": "uint64"
				},
				{
					"internalType": "uint64",
					"name": "_upperLimit",
					"type": "uint64"
				}
			],
			"name": "createTopUp",
			"outputs": [],
			"stateMutability": "nonpayable",
			"type": "function"
		},
		{
			"inputs": [
				{
					"internalType": "bytes32[]",
					"name": "_indices",
					"type": "bytes32[]"
				}
			],
			"name": "deleteBatch",
			"outputs": [],
			"stateMutability": "nonpayable",
			"type": "function"
		},
		{
			"inputs": [
				{
					"internalType": "bytes32",
					"name": "_index",
					"type": "bytes32"
				}
			],
			"name": "deleteTopUp",
			"outputs": [],
			"stateMutability": "nonpayable",
			"type": "function"
		},
		{
			"inputs": [
				{
					"internalType": "address",
					"name": "_user",
					"type": "address"
				},
				{
					"internalType": "address",
					"name": "_superToken",
					"type": "address"
				},
				{
					"internalType": "address",
					"name": "_liquidityToken",
					"type": "address"
				}
			],
			"name": "deleteTopUp",
			"outputs": [],
			"stateMutability": "nonpayable",
			"type": "function"
		},
		{
			"inputs": [
				{
					"internalType": "address",
					"name": "_user",
					"type": "address"
				},
				{
					"internalType": "address",
					"name": "_superToken",
					"type": "address"
				},
				{
					"internalType": "address",
					"name": "_liquidityToken",
					"type": "address"
				}
			],
			"name": "getTopUp",
			"outputs": [
				{
					"internalType": "address",
					"name": "",
					"type": "address"
				},
				{
					"internalType": "contract ISuperToken",
					"name": "",
					"type": "address"
				},
				{
					"components": [
						{
							"internalType": "contract IStrategy",
							"name": "strategy",
							"type": "address"
						},
						{
							"internalType": "address",
							"name": "liquidityToken",
							"type": "address"
						}
					],
					"internalType": "struct Registry.Strategy",
					"name": "",
					"type": "tuple"
				},
				{
					"internalType": "uint64",
					"name": "",
					"type": "uint64"
				},
				{
					"internalType": "uint64",
					"name": "",
					"type": "uint64"
				},
				{
					"internalType": "uint64",
					"name": "",
					"type": "uint64"
				}
			],
			"stateMutability": "view",
			"type": "function"
		},
		{
			"inputs": [
				{
					"internalType": "bytes32",
					"name": "_index",
					"type": "bytes32"
				}
			],
			"name": "getTopUpByIndex",
			"outputs": [
				{
					"internalType": "address",
					"name": "",
					"type": "address"
				},
				{
					"internalType": "contract ISuperToken",
					"name": "",
					"type": "address"
				},
				{
					"components": [
						{
							"internalType": "contract IStrategy",
							"name": "strategy",
							"type": "address"
						},
						{
							"internalType": "address",
							"name": "liquidityToken",
							"type": "address"
						}
					],
					"internalType": "struct Registry.Strategy",
					"name": "",
					"type": "tuple"
				},
				{
					"internalType": "uint64",
					"name": "",
					"type": "uint64"
				},
				{
					"internalType": "uint64",
					"name": "",
					"type": "uint64"
				},
				{
					"internalType": "uint64",
					"name": "",
					"type": "uint64"
				}
			],
			"stateMutability": "view",
			"type": "function"
		},
		{
			"inputs": [
				{
					"internalType": "address",
					"name": "_user",
					"type": "address"
				},
				{
					"internalType": "address",
					"name": "_superToken",
					"type": "address"
				},
				{
					"internalType": "address",
					"name": "_liquidityToken",
					"type": "address"
				}
			],
			"name": "getTopUpIndex",
			"outputs": [
				{
					"internalType": "bytes32",
					"name": "",
					"type": "bytes32"
				}
			],
			"stateMutability": "view",
			"type": "function"
		},
		{
			"inputs": [],
			"name": "owner",
			"outputs": [
				{
					"internalType": "address",
					"name": "",
					"type": "address"
				}
			],
			"stateMutability": "view",
			"type": "function"
		},
		{
			"inputs": [
				{
					"internalType": "bytes32",
					"name": "_index",
					"type": "bytes32"
				}
			],
			"name": "performTopUp",
			"outputs": [],
			"stateMutability": "nonpayable",
			"type": "function"
		},
		{
			"inputs": [],
			"name": "renounceOwnership",
			"outputs": [],
			"stateMutability": "nonpayable",
			"type": "function"
		},
		{
			"inputs": [
				{
					"internalType": "address",
					"name": "newOwner",
					"type": "address"
				}
			],
			"name": "transferOwnership",
			"outputs": [],
			"stateMutability": "nonpayable",
			"type": "function"
		}
	],
	"bytecode": "0x60a06040523480156200001157600080fd5b5060405162002d4538038062002d45833981810160405281019062000037919062000178565b620000576200004b6200009560201b60201c565b6200009d60201b60201c565b8073ffffffffffffffffffffffffffffffffffffffff1660808173ffffffffffffffffffffffffffffffffffffffff1660601b815250505062000206565b600033905090565b60008060009054906101000a900473ffffffffffffffffffffffffffffffffffffffff169050816000806101000a81548173ffffffffffffffffffffffffffffffffffffffff021916908373ffffffffffffffffffffffffffffffffffffffff1602179055508173ffffffffffffffffffffffffffffffffffffffff168173ffffffffffffffffffffffffffffffffffffffff167f8be0079c531659141344cd1fd0a4f28419497f9722a3daafe3b4186f6b6457e060405160405180910390a35050565b6000815190506200017281620001ec565b92915050565b6000602082840312156200018b57600080fd5b60006200019b8482850162000161565b91505092915050565b6000620001b182620001cc565b9050919050565b6000620001c582620001a4565b9050919050565b600073ffffffffffffffffffffffffffffffffffffffff82169050919050565b620001f781620001b8565b81146200020357600080fd5b50565b60805160601c612b236200022260003960005050612b236000f3fe608060405234801561001057600080fd5b50600436106100cf5760003560e01c80638b80f3511161008c578063eabaf65d11610066578063eabaf65d14610209578063f11665c914610225578063f2556da914610255578063f2fde38b14610271576100cf565b80638b80f351146101815780638da5cb5b146101b65780639aed5c51146101d4576100cf565b80633aa4e590146100d45780633db29ed8146100f057806347cda6911461010e5780636309c5f61461012a578063715018a61461014657806373ea054314610150575b600080fd5b6100ee60048036038101906100e99190611de4565b61028d565b005b6100f8610702565b60405161010591906122cf565b60405180910390f35b61012860048036038101906101239190611e6d565b61071a565b005b610144600480360381019061013f9190611eb2565b610788565b005b61014e610ba5565b005b61016a60048036038101906101659190611eb2565b610c2d565b60405161017892919061228b565b60405180910390f35b61019b60048036038101906101969190611d95565b611328565b6040516101ad9695949392919061222a565b60405180910390f35b6101be611368565b6040516101cb9190612133565b60405180910390f35b6101ee60048036038101906101e99190611eb2565b611391565b6040516102009695949392919061222a565b60405180910390f35b610223600480360381019061021e9190611eb2565b6115f8565b005b61023f600480360381019061023a9190611d95565b611928565b60405161024c91906122b4565b60405180910390f35b61026f600480360381019061026a9190611d95565b61195e565b005b61028b60048036038101906102869190611d43565b611a5c565b005b600073ffffffffffffffffffffffffffffffffffffffff168673ffffffffffffffffffffffffffffffffffffffff16141580156102f75750600073ffffffffffffffffffffffffffffffffffffffff168573ffffffffffffffffffffffffffffffffffffffff1614155b80156103305750600073ffffffffffffffffffffffffffffffffffffffff168473ffffffffffffffffffffffffffffffffffffffff1614155b61036f576040517f08c379a0000000000000000000000000000000000000000000000000000000008152600401610366906123f3565b60405180910390fd5b428367ffffffffffffffff16116103bb576040517f08c379a00000000000000000000000000000000000000000000000000000000081526004016103b290612373565b60405180910390fd5b60006103c8338887611928565b905060006001600083815260200190815260200160002060040160009054906101000a900467ffffffffffffffff1667ffffffffffffffff16141561068f5760006040518060c001604052803373ffffffffffffffffffffffffffffffffffffffff1681526020018973ffffffffffffffffffffffffffffffffffffffff16815260200160405180604001604052808a73ffffffffffffffffffffffffffffffffffffffff1681526020018973ffffffffffffffffffffffffffffffffffffffff1681525081526020018667ffffffffffffffff1681526020018567ffffffffffffffff1681526020018467ffffffffffffffff168152509050806001600084815260200190815260200160002060008201518160000160006101000a81548173ffffffffffffffffffffffffffffffffffffffff021916908373ffffffffffffffffffffffffffffffffffffffff16021790555060208201518160010160006101000a81548173ffffffffffffffffffffffffffffffffffffffff021916908373ffffffffffffffffffffffffffffffffffffffff16021790555060408201518160020160008201518160000160006101000a81548173ffffffffffffffffffffffffffffffffffffffff021916908373ffffffffffffffffffffffffffffffffffffffff16021790555060208201518160010160006101000a81548173ffffffffffffffffffffffffffffffffffffffff021916908373ffffffffffffffffffffffffffffffffffffffff160217905550505060608201518160040160006101000a81548167ffffffffffffffff021916908367ffffffffffffffff16021790555060808201518160040160086101000a81548167ffffffffffffffff021916908367ffffffffffffffff16021790555060a08201518160040160106101000a81548167ffffffffffffffff021916908367ffffffffffffffff160217905550905050505b8673ffffffffffffffffffffffffffffffffffffffff163373ffffffffffffffffffffffffffffffffffffffff16827f82d3d0a9d8884712f7247de695d15e55a21204d483adf4c4e9dd33a646a330c5888a896040516106f1939291906121f3565b60405180910390a450505050505050565b7349e565ed1bdc17f3d220f72df0857c26fa83f87381565b60005b8282905081101561078357610770838383818110610764577f4e487b7100000000000000000000000000000000000000000000000000000000600052603260045260246000fd5b90506020020135610788565b808061077b90612841565b91505061071d565b505050565b6000600160008381526020019081526020016000206040518060c00160405290816000820160009054906101000a900473ffffffffffffffffffffffffffffffffffffffff1673ffffffffffffffffffffffffffffffffffffffff1673ffffffffffffffffffffffffffffffffffffffff1681526020016001820160009054906101000a900473ffffffffffffffffffffffffffffffffffffffff1673ffffffffffffffffffffffffffffffffffffffff1673ffffffffffffffffffffffffffffffffffffffff168152602001600282016040518060400160405290816000820160009054906101000a900473ffffffffffffffffffffffffffffffffffffffff1673ffffffffffffffffffffffffffffffffffffffff1673ffffffffffffffffffffffffffffffffffffffff1681526020016001820160009054906101000a900473ffffffffffffffffffffffffffffffffffffffff1673ffffffffffffffffffffffffffffffffffffffff1673ffffffffffffffffffffffffffffffffffffffff168152505081526020016004820160009054906101000a900467ffffffffffffffff1667ffffffffffffffff1667ffffffffffffffff1681526020016004820160089054906101000a900467ffffffffffffffff1667ffffffffffffffff1667ffffffffffffffff1681526020016004820160109054906101000a900467ffffffffffffffff1667ffffffffffffffff1667ffffffffffffffff168152505090506000816060015167ffffffffffffffff16116109fd576040517f08c379a00000000000000000000000000000000000000000000000000000000081526004016109f490612353565b60405180910390fd5b3373ffffffffffffffffffffffffffffffffffffffff16816000015173ffffffffffffffffffffffffffffffffffffffff161480610a48575042816060015167ffffffffffffffff16105b610a87576040517f08c379a0000000000000000000000000000000000000000000000000000000008152600401610a7e90612393565b60405180910390fd5b60006001600084815260200190815260200160002060040160006101000a81548167ffffffffffffffff021916908367ffffffffffffffff16021790555060006001600084815260200190815260200160002060000160006101000a81548173ffffffffffffffffffffffffffffffffffffffff021916908373ffffffffffffffffffffffffffffffffffffffff160217905550806020015173ffffffffffffffffffffffffffffffffffffffff16816000015173ffffffffffffffffffffffffffffffffffffffff16837fbeabbbfa8a40a90682ed937b0034152e69334f09307474b297e7b1ed331550228460400151602001518560400151600001518660600151604051610b99939291906121f3565b60405180910390a45050565b610bad611b54565b73ffffffffffffffffffffffffffffffffffffffff16610bcb611368565b73ffffffffffffffffffffffffffffffffffffffff1614610c21576040517f08c379a0000000000000000000000000000000000000000000000000000000008152600401610c18906123b3565b60405180910390fd5b610c2b6000611b5c565b565b6000806000600160008581526020019081526020016000206040518060c00160405290816000820160009054906101000a900473ffffffffffffffffffffffffffffffffffffffff1673ffffffffffffffffffffffffffffffffffffffff1673ffffffffffffffffffffffffffffffffffffffff1681526020016001820160009054906101000a900473ffffffffffffffffffffffffffffffffffffffff1673ffffffffffffffffffffffffffffffffffffffff1673ffffffffffffffffffffffffffffffffffffffff168152602001600282016040518060400160405290816000820160009054906101000a900473ffffffffffffffffffffffffffffffffffffffff1673ffffffffffffffffffffffffffffffffffffffff1673ffffffffffffffffffffffffffffffffffffffff1681526020016001820160009054906101000a900473ffffffffffffffffffffffffffffffffffffffff1673ffffffffffffffffffffffffffffffffffffffff1673ffffffffffffffffffffffffffffffffffffffff168152505081526020016004820160009054906101000a900467ffffffffffffffff1667ffffffffffffffff1667ffffffffffffffff1681526020016004820160089054906101000a900467ffffffffffffffff1667ffffffffffffffff1667ffffffffffffffff1681526020016004820160109054906101000a900467ffffffffffffffff1667ffffffffffffffff1667ffffffffffffffff1681525050905042816060015167ffffffffffffffff1611610e76576000809250925050611323565b600073ffffffffffffffffffffffffffffffffffffffff16816000015173ffffffffffffffffffffffffffffffffffffffff161480610ec2575042816060015167ffffffffffffffff16115b80610f6b5750600081604001516020015173ffffffffffffffffffffffffffffffffffffffff1663dd62ed3e83600001518460400151600001516040518363ffffffff1660e01b8152600401610f1992919061214e565b60206040518083038186803b158015610f3157600080fd5b505afa158015610f45573d6000803e3d6000fd5b505050506040513d601f19601f82011682018060405250810190610f699190611f04565b145b8061100a5750600081604001516020015173ffffffffffffffffffffffffffffffffffffffff166370a0823183600001516040518263ffffffff1660e01b8152600401610fb89190612133565b60206040518083038186803b158015610fd057600080fd5b505afa158015610fe4573d6000803e3d6000fd5b505050506040513d601f19601f820116820180604052508101906110089190611f04565b145b1561101c576000809250925050611323565b60007349e565ed1bdc17f3d220f72df0857c26fa83f87373ffffffffffffffffffffffffffffffffffffffff1663e8e7e2d1836020015184600001516040518363ffffffff1660e01b81526004016110759291906122ea565b60206040518083038186803b15801561108d57600080fd5b505afa1580156110a1573d6000803e3d6000fd5b505050506040513d601f19601f820116820180604052508101906110c59190611edb565b9050600081600b0b1215611319576000826020015173ffffffffffffffffffffffffffffffffffffffff166370a0823184600001516040518263ffffffff1660e01b81526004016111169190612133565b60206040518083038186803b15801561112e57600080fd5b505afa158015611142573d6000803e3d6000fd5b505050506040513d601f19601f820116820180604052508101906111669190611f04565b90506000827fffffffffffffffffffffffffffffffffffffffffffffffffffffffffffffffff61119691906125c6565b6bffffffffffffffffffffffff169050836080015167ffffffffffffffff16816111c091906126b5565b82116113165760008460a0015167ffffffffffffffff16826111e291906126b5565b90506001856020015173ffffffffffffffffffffffffffffffffffffffff1663ee719bc86040518163ffffffff1660e01b815260040160206040518083038186803b15801561123057600080fd5b505afa158015611244573d6000803e3d6000fd5b505050506040513d601f19601f820116820180604052508101906112689190611d6c565b73ffffffffffffffffffffffffffffffffffffffff1663313ce5676040518163ffffffff1660e01b815260040160206040518083038186803b1580156112ad57600080fd5b505afa1580156112c1573d6000803e3d6000fd5b505050506040513d601f19601f820116820180604052508101906112e59190611f2d565b60126112f1919061270f565b600a6112fd91906124a8565b826113089190612424565b965096505050505050611323565b50505b6000809350935050505b915091565b600080611333611c20565b6000806000806113448a8a8a611928565b905061134f81611391565b9650965096509650965096505093975093979195509350565b60008060009054906101000a900473ffffffffffffffffffffffffffffffffffffffff16905090565b60008061139c611c20565b600080600080600160008981526020019081526020016000206040518060c00160405290816000820160009054906101000a900473ffffffffffffffffffffffffffffffffffffffff1673ffffffffffffffffffffffffffffffffffffffff1673ffffffffffffffffffffffffffffffffffffffff1681526020016001820160009054906101000a900473ffffffffffffffffffffffffffffffffffffffff1673ffffffffffffffffffffffffffffffffffffffff1673ffffffffffffffffffffffffffffffffffffffff168152602001600282016040518060400160405290816000820160009054906101000a900473ffffffffffffffffffffffffffffffffffffffff1673ffffffffffffffffffffffffffffffffffffffff1673ffffffffffffffffffffffffffffffffffffffff1681526020016001820160009054906101000a900473ffffffffffffffffffffffffffffffffffffffff1673ffffffffffffffffffffffffffffffffffffffff1673ffffffffffffffffffffffffffffffffffffffff168152505081526020016004820160009054906101000a900467ffffffffffffffff1667ffffffffffffffff1667ffffffffffffffff1681526020016004820160089054906101000a900467ffffffffffffffff1667ffffffffffffffff1667ffffffffffffffff1681526020016004820160109054906101000a900467ffffffffffffffff1667ffffffffffffffff1667ffffffffffffffff16815250509050806000015181602001518260400151836060015184608001518560a001519650965096509650965096505091939550919395565b6000600160008381526020019081526020016000206040518060c00160405290816000820160009054906101000a900473ffffffffffffffffffffffffffffffffffffffff1673ffffffffffffffffffffffffffffffffffffffff1673ffffffffffffffffffffffffffffffffffffffff1681526020016001820160009054906101000a900473ffffffffffffffffffffffffffffffffffffffff1673ffffffffffffffffffffffffffffffffffffffff1673ffffffffffffffffffffffffffffffffffffffff168152602001600282016040518060400160405290816000820160009054906101000a900473ffffffffffffffffffffffffffffffffffffffff1673ffffffffffffffffffffffffffffffffffffffff1673ffffffffffffffffffffffffffffffffffffffff1681526020016001820160009054906101000a900473ffffffffffffffffffffffffffffffffffffffff1673ffffffffffffffffffffffffffffffffffffffff1673ffffffffffffffffffffffffffffffffffffffff168152505081526020016004820160009054906101000a900467ffffffffffffffff1667ffffffffffffffff1667ffffffffffffffff1681526020016004820160089054906101000a900467ffffffffffffffff1667ffffffffffffffff1667ffffffffffffffff1681526020016004820160109054906101000a900467ffffffffffffffff1667ffffffffffffffff1667ffffffffffffffff1681525050905060008061182884610c2d565b915091508161186c576040517f08c379a0000000000000000000000000000000000000000000000000000000008152600401611863906123d3565b60405180910390fd5b82604001516000015173ffffffffffffffffffffffffffffffffffffffff166399f6042c84600001518560400151602001518660200151856040518563ffffffff1660e01b81526004016118c394939291906121ae565b600060405180830381600087803b1580156118dd57600080fd5b505af11580156118f1573d6000803e3d6000fd5b50505050837f23e15d99cce0905fdc74e5caeedca687e374dbe9e7e7e59e33ca243710a61a2060405160405180910390a250505050565b600083838360405160200161193f93929190612177565b6040516020818303038152906040528051906020012090509392505050565b600073ffffffffffffffffffffffffffffffffffffffff168373ffffffffffffffffffffffffffffffffffffffff1614156119ce576040517f08c379a00000000000000000000000000000000000000000000000000000000081526004016119c590612313565b60405180910390fd5b600073ffffffffffffffffffffffffffffffffffffffff168273ffffffffffffffffffffffffffffffffffffffff161415611a3e576040517f08c379a0000000000000000000000000000000000000000000000000000000008152600401611a3590612313565b60405180910390fd5b6000611a4b848484611928565b9050611a5681610788565b50505050565b611a64611b54565b73ffffffffffffffffffffffffffffffffffffffff16611a82611368565b73ffffffffffffffffffffffffffffffffffffffff1614611ad8576040517f08c379a0000000000000000000000000000000000000000000000000000000008152600401611acf906123b3565b60405180910390fd5b600073ffffffffffffffffffffffffffffffffffffffff168173ffffffffffffffffffffffffffffffffffffffff161415611b48576040517f08c379a0000000000000000000000000000000000000000000000000000000008152600401611b3f90612333565b60405180910390fd5b611b5181611b5c565b50565b600033905090565b60008060009054906101000a900473ffffffffffffffffffffffffffffffffffffffff169050816000806101000a81548173ffffffffffffffffffffffffffffffffffffffff021916908373ffffffffffffffffffffffffffffffffffffffff1602179055508173ffffffffffffffffffffffffffffffffffffffff168173ffffffffffffffffffffffffffffffffffffffff167f8be0079c531659141344cd1fd0a4f28419497f9722a3daafe3b4186f6b6457e060405160405180910390a35050565b6040518060400160405280600073ffffffffffffffffffffffffffffffffffffffff168152602001600073ffffffffffffffffffffffffffffffffffffffff1681525090565b600081359050611c7581612a63565b92915050565b600081519050611c8a81612a63565b92915050565b60008083601f840112611ca257600080fd5b8235905067ffffffffffffffff811115611cbb57600080fd5b602083019150836020820283011115611cd357600080fd5b9250929050565b600081359050611ce981612a7a565b92915050565b600081519050611cfe81612a91565b92915050565b600081519050611d1381612aa8565b92915050565b600081359050611d2881612abf565b92915050565b600081519050611d3d81612ad6565b92915050565b600060208284031215611d5557600080fd5b6000611d6384828501611c66565b91505092915050565b600060208284031215611d7e57600080fd5b6000611d8c84828501611c7b565b91505092915050565b600080600060608486031215611daa57600080fd5b6000611db886828701611c66565b9350506020611dc986828701611c66565b9250506040611dda86828701611c66565b9150509250925092565b60008060008060008060c08789031215611dfd57600080fd5b6000611e0b89828a01611c66565b9650506020611e1c89828a01611c66565b9550506040611e2d89828a01611c66565b9450506060611e3e89828a01611d19565b9350506080611e4f89828a01611d19565b92505060a0611e6089828a01611d19565b9150509295509295509295565b60008060208385031215611e8057600080fd5b600083013567ffffffffffffffff811115611e9a57600080fd5b611ea685828601611c90565b92509250509250929050565b600060208284031215611ec457600080fd5b6000611ed284828501611cda565b91505092915050565b600060208284031215611eed57600080fd5b6000611efb84828501611cef565b91505092915050565b600060208284031215611f1657600080fd5b6000611f2484828501611d04565b91505092915050565b600060208284031215611f3f57600080fd5b6000611f4d84828501611d2e565b91505092915050565b611f5f81612743565b82525050565b611f6e81612743565b82525050565b611f7d81612755565b82525050565b611f8c81612761565b82525050565b611f9b816127c3565b82525050565b611faa816127e7565b82525050565b611fb98161280b565b82525050565b6000611fcc601583612413565b9150611fd7826128f5565b602082019050919050565b6000611fef602683612413565b9150611ffa8261291e565b604082019050919050565b6000612012601483612413565b915061201d8261296d565b602082019050919050565b6000612035600c83612413565b915061204082612996565b602082019050919050565b6000612058601283612413565b9150612063826129bf565b602082019050919050565b600061207b602083612413565b9150612086826129e8565b602082019050919050565b600061209e601283612413565b91506120a982612a11565b602082019050919050565b60006120c1600c83612413565b91506120cc82612a3a565b602082019050919050565b6040820160008201516120ed6000850182611fa1565b5060208201516121006020850182611f56565b50505050565b61210f81612798565b82525050565b61211e8161282f565b82525050565b61212d816127a2565b82525050565b60006020820190506121486000830184611f65565b92915050565b60006040820190506121636000830185611f65565b6121706020830184611f65565b9392505050565b600060608201905061218c6000830186611f65565b6121996020830185611f65565b6121a66040830184611f65565b949350505050565b60006080820190506121c36000830187611f65565b6121d06020830186611f65565b6121dd6040830185611fb0565b6121ea6060830184612106565b95945050505050565b60006060820190506122086000830186611f65565b6122156020830185611f65565b6122226040830184612115565b949350505050565b600060e08201905061223f6000830189611f65565b61224c6020830188611fb0565b61225960408301876120d7565b6122666080830186612124565b61227360a0830185612124565b61228060c0830184612124565b979650505050505050565b60006040820190506122a06000830185611f74565b6122ad6020830184612106565b9392505050565b60006020820190506122c96000830184611f83565b92915050565b60006020820190506122e46000830184611f92565b92915050565b60006040820190506122ff6000830185611fb0565b61230c6020830184611f65565b9392505050565b6000602082019050818103600083015261232c81611fbf565b9050919050565b6000602082019050818103600083015261234c81611fe2565b9050919050565b6000602082019050818103600083015261236c81612005565b9050919050565b6000602082019050818103600083015261238c81612028565b9050919050565b600060208201905081810360008301526123ac8161204b565b9050919050565b600060208201905081810360008301526123cc8161206e565b9050919050565b600060208201905081810360008301526123ec81612091565b9050919050565b6000602082019050818103600083015261240c816120b4565b9050919050565b600082825260208201905092915050565b600061242f82612798565b915061243a83612798565b92508261244a576124496128b9565b5b828204905092915050565b6000808291508390505b600185111561249f5780860481111561247b5761247a61288a565b5b600185161561248a5780820291505b8081029050612498856128e8565b945061245f565b94509492505050565b60006124b382612798565b91506124be836127b6565b92506124eb7fffffffffffffffffffffffffffffffffffffffffffffffffffffffffffffffff84846124f3565b905092915050565b60008261250357600190506125bf565b8161251157600090506125bf565b8160018114612527576002811461253157612560565b60019150506125bf565b60ff8411156125435761254261288a565b5b8360020a91508482111561255a5761255961288a565b5b506125bf565b5060208310610133831016604e8410600b84101617156125955782820a9050838111156125905761258f61288a565b5b6125bf565b6125a28484846001612455565b925090508184048111156125b9576125b861288a565b5b81810290505b9392505050565b60006125d18261276b565b91506125dc8361276b565b9250826b7fffffffffffffffffffffff04821160008413600084131616156126075761260661288a565b5b817fffffffffffffffffffffffffffffffffffffffff80000000000000000000000005831260008412600084131616156126445761264361288a565b5b827fffffffffffffffffffffffffffffffffffffffff80000000000000000000000005821260008413600084121616156126815761268061288a565b5b826b7fffffffffffffffffffffff05821260008412600084121616156126aa576126a961288a565b5b828202905092915050565b60006126c082612798565b91506126cb83612798565b9250817fffffffffffffffffffffffffffffffffffffffffffffffffffffffffffffffff04831182151516156127045761270361288a565b5b828202905092915050565b600061271a826127b6565b9150612725836127b6565b9250828210156127385761273761288a565b5b828203905092915050565b600061274e82612778565b9050919050565b60008115159050919050565b6000819050919050565b600081600b0b9050919050565b600073ffffffffffffffffffffffffffffffffffffffff82169050919050565b6000819050919050565b600067ffffffffffffffff82169050919050565b600060ff82169050919050565b60006127ce826127d5565b9050919050565b60006127e082612778565b9050919050565b60006127f2826127f9565b9050919050565b600061280482612778565b9050919050565b60006128168261281d565b9050919050565b600061282882612778565b9050919050565b600061283a826127a2565b9050919050565b600061284c82612798565b91507fffffffffffffffffffffffffffffffffffffffffffffffffffffffffffffffff82141561287f5761287e61288a565b5b600182019050919050565b7f4e487b7100000000000000000000000000000000000000000000000000000000600052601160045260246000fd5b7f4e487b7100000000000000000000000000000000000000000000000000000000600052601260045260246000fd5b60008160011c9050919050565b7f302041646472657373206e6f7420616c6c6f7765640000000000000000000000600082015250565b7f4f776e61626c653a206e6577206f776e657220697320746865207a65726f206160008201527f6464726573730000000000000000000000000000000000000000000000000000602082015250565b7f546f70557020646f6573206e6f74206578697374000000000000000000000000600082015250565b7f496e76616c69642074696d650000000000000000000000000000000000000000600082015250565b7f43616e27742064656c65746520546f7055700000000000000000000000000000600082015250565b7f4f776e61626c653a2063616c6c6572206973206e6f7420746865206f776e6572600082015250565b7f546f70557020636865636b206661696c65640000000000000000000000000000600082015250565b7f4e756c6c20416464726573730000000000000000000000000000000000000000600082015250565b612a6c81612743565b8114612a7757600080fd5b50565b612a8381612761565b8114612a8e57600080fd5b50565b612a9a8161276b565b8114612aa557600080fd5b50565b612ab181612798565b8114612abc57600080fd5b50565b612ac8816127a2565b8114612ad357600080fd5b50565b612adf816127b6565b8114612aea57600080fd5b5056fea2646970667358221220e1ec3b6e9f2580f1f1d6cbf9ab4cce0ac137881fe5e022bfd6234ab34d70b13f64736f6c63430008040033",
	"linkReferences": {},
	"deployedLinkReferences": {}
}